{
  "contractName": "Election",
  "abi": [
    {
      "inputs": [],
      "payable": false,
      "stateMutability": "nonpayable",
      "type": "constructor"
    },
    {
      "anonymous": false,
      "inputs": [
        {
          "indexed": true,
          "internalType": "uint256",
          "name": "_candidateId",
          "type": "uint256"
        }
      ],
      "name": "votedEvent",
      "type": "event"
    },
    {
      "constant": true,
      "inputs": [],
      "name": "candidate",
      "outputs": [
        {
          "internalType": "string",
          "name": "",
          "type": "string"
        }
      ],
      "payable": false,
      "stateMutability": "view",
      "type": "function"
    },
    {
      "constant": true,
      "inputs": [
        {
          "internalType": "uint256",
          "name": "",
          "type": "uint256"
        }
      ],
      "name": "candidates",
      "outputs": [
        {
          "internalType": "uint256",
          "name": "id",
          "type": "uint256"
        },
        {
          "internalType": "string",
          "name": "name",
          "type": "string"
        },
        {
          "internalType": "uint256",
          "name": "voteCount",
          "type": "uint256"
        },
        {
          "internalType": "string",
          "name": "details",
          "type": "string"
        },
        {
          "internalType": "string",
          "name": "election_id",
          "type": "string"
        }
      ],
      "payable": false,
      "stateMutability": "view",
      "type": "function"
    },
    {
      "constant": true,
      "inputs": [],
      "name": "candidatesCount",
      "outputs": [
        {
          "internalType": "uint256",
          "name": "",
          "type": "uint256"
        }
      ],
      "payable": false,
      "stateMutability": "view",
      "type": "function"
    },
    {
      "constant": true,
      "inputs": [],
      "name": "user",
      "outputs": [
        {
          "internalType": "string",
          "name": "",
          "type": "string"
        }
      ],
      "payable": false,
      "stateMutability": "view",
      "type": "function"
    },
    {
      "constant": true,
      "inputs": [
        {
          "internalType": "uint256",
          "name": "",
          "type": "uint256"
        }
      ],
      "name": "users",
      "outputs": [
        {
          "internalType": "uint256",
          "name": "id",
          "type": "uint256"
        },
        {
          "internalType": "string",
          "name": "name",
          "type": "string"
        },
        {
          "internalType": "bool",
          "name": "voted",
          "type": "bool"
        },
        {
          "internalType": "string",
          "name": "aadhar",
          "type": "string"
        },
        {
          "internalType": "string",
          "name": "contituency_id",
          "type": "string"
        }
      ],
      "payable": false,
      "stateMutability": "view",
      "type": "function"
    },
    {
      "constant": true,
      "inputs": [],
      "name": "usersCount",
      "outputs": [
        {
          "internalType": "uint256",
          "name": "",
          "type": "uint256"
        }
      ],
      "payable": false,
      "stateMutability": "view",
      "type": "function"
    },
    {
      "constant": true,
      "inputs": [
        {
          "internalType": "address",
          "name": "",
          "type": "address"
        }
      ],
      "name": "voters",
      "outputs": [
        {
          "internalType": "bool",
          "name": "",
          "type": "bool"
        }
      ],
      "payable": false,
      "stateMutability": "view",
      "type": "function"
    },
    {
      "constant": false,
      "inputs": [
        {
          "internalType": "string",
          "name": "_name",
          "type": "string"
        },
        {
          "internalType": "string",
          "name": "_details",
          "type": "string"
        },
        {
          "internalType": "string",
          "name": "_election_id",
          "type": "string"
        }
      ],
      "name": "addCandidate",
      "outputs": [],
      "payable": false,
      "stateMutability": "nonpayable",
      "type": "function"
    },
    {
      "constant": false,
      "inputs": [
        {
          "internalType": "string",
          "name": "_name",
          "type": "string"
        },
        {
          "internalType": "string",
          "name": "_aadhar",
          "type": "string"
        },
        {
          "internalType": "string",
          "name": "_constituency_id",
          "type": "string"
        }
      ],
      "name": "addUser",
      "outputs": [],
      "payable": false,
      "stateMutability": "nonpayable",
      "type": "function"
    },
    {
      "constant": true,
      "inputs": [],
      "name": "getUsers",
      "outputs": [
        {
          "components": [
            {
              "internalType": "uint256",
              "name": "id",
              "type": "uint256"
            },
            {
              "internalType": "string",
              "name": "name",
              "type": "string"
            },
            {
              "internalType": "bool",
              "name": "voted",
              "type": "bool"
            },
            {
              "internalType": "string",
              "name": "aadhar",
              "type": "string"
            },
            {
              "internalType": "string",
              "name": "contituency_id",
              "type": "string"
            }
          ],
          "internalType": "struct Election.User[]",
          "name": "",
          "type": "tuple[]"
        }
      ],
      "payable": false,
      "stateMutability": "view",
      "type": "function"
    },
    {
      "constant": false,
      "inputs": [
        {
          "internalType": "uint256",
          "name": "_candidateId",
          "type": "uint256"
        }
      ],
      "name": "vote",
      "outputs": [],
      "payable": false,
      "stateMutability": "nonpayable",
      "type": "function"
    }
  ],
  "bytecode": "0x608060405234801561001057600080fd5b50611417806100206000396000f3fe608060405234801561001057600080fd5b50600436106100a85760003560e01c80634f8632ba116100715780634f8632ba1461016d5780636ba13a821461018b5780636c8381f8146101a957806395c5fed4146101c7578063a3ec138d146101e3578063ad71f8dc14610213576100a8565b8062ce8e3e146100ad5780630121b93f146100cb5780632d35a8a2146100e75780633477ee2e14610105578063365b98b214610139575b600080fd5b6100b561022f565b6040516100c29190611102565b60405180910390f35b6100e560048036036100e09190810190610f1e565b6104dc565b005b6100ef6105fa565b6040516100fc9190611161565b60405180910390f35b61011f600480360361011a9190810190610f1e565b610600565b6040516101309594939291906111e4565b60405180910390f35b610153600480360361014e9190810190610f1e565b6107fe565b60405161016495949392919061117c565b60405180910390f35b610175610a09565b604051610182919061113f565b60405180910390f35b610193610aa7565b6040516101a09190611161565b60405180910390f35b6101b1610aad565b6040516101be919061113f565b60405180910390f35b6101e160048036036101dc9190810190610e87565b610b4b565b005b6101fd60048036036101f89190810190610e5e565b610c27565b60405161020a9190611124565b60405180910390f35b61022d60048036036102289190810190610e87565b610c47565b005b60608060045460405190808252806020026020018201604052801561026e57816020015b61025b610d0a565b8152602001906001900390816102535790505b50905060008090505b6004548110156104d4576000600260008381526020019081526020016000209050806040518060a001604052908160008201548152602001600182018054600181600116156101000203166002900480601f0160208091040260200160405190810160405280929190818152602001828054600181600116156101000203166002900480156103475780601f1061031c57610100808354040283529160200191610347565b820191906000526020600020905b81548152906001019060200180831161032a57829003601f168201915b505050505081526020016002820160009054906101000a900460ff16151515158152602001600382018054600181600116156101000203166002900480601f0160208091040260200160405190810160405280929190818152602001828054600181600116156101000203166002900480156104045780601f106103d957610100808354040283529160200191610404565b820191906000526020600020905b8154815290600101906020018083116103e757829003601f168201915b50505050508152602001600482018054600181600116156101000203166002900480601f0160208091040260200160405190810160405280929190818152602001828054600181600116156101000203166002900480156104a65780601f1061047b576101008083540402835291602001916104a6565b820191906000526020600020905b81548152906001019060200180831161048957829003601f168201915b5050505050815250508383815181106104bb57fe5b6020026020010181905250508080600101915050610277565b508091505090565b600160003373ffffffffffffffffffffffffffffffffffffffff1673ffffffffffffffffffffffffffffffffffffffff16815260200190815260200160002060009054906101000a900460ff161561053357600080fd5b60008111801561054557506003548111155b61054e57600080fd5b60018060003373ffffffffffffffffffffffffffffffffffffffff1673ffffffffffffffffffffffffffffffffffffffff16815260200190815260200160002060006101000a81548160ff02191690831515021790555060008082815260200190815260200160002060020160008154809291906001019190505550807ffff3c900d938d21d0990d786e819f29b8d05c1ef587b462b939609625b684b1660405160405180910390a250565b60035481565b6000602052806000526040600020600091509050806000015490806001018054600181600116156101000203166002900480601f0160208091040260200160405190810160405280929190818152602001828054600181600116156101000203166002900480156106b25780601f10610687576101008083540402835291602001916106b2565b820191906000526020600020905b81548152906001019060200180831161069557829003601f168201915b505050505090806002015490806003018054600181600116156101000203166002900480601f0160208091040260200160405190810160405280929190818152602001828054600181600116156101000203166002900480156107565780601f1061072b57610100808354040283529160200191610756565b820191906000526020600020905b81548152906001019060200180831161073957829003601f168201915b505050505090806004018054600181600116156101000203166002900480601f0160208091040260200160405190810160405280929190818152602001828054600181600116156101000203166002900480156107f45780601f106107c9576101008083540402835291602001916107f4565b820191906000526020600020905b8154815290600101906020018083116107d757829003601f168201915b5050505050905085565b6002602052806000526040600020600091509050806000015490806001018054600181600116156101000203166002900480601f0160208091040260200160405190810160405280929190818152602001828054600181600116156101000203166002900480156108b05780601f10610885576101008083540402835291602001916108b0565b820191906000526020600020905b81548152906001019060200180831161089357829003601f168201915b5050505050908060020160009054906101000a900460ff1690806003018054600181600116156101000203166002900480601f0160208091040260200160405190810160405280929190818152602001828054600181600116156101000203166002900480156109615780601f1061093657610100808354040283529160200191610961565b820191906000526020600020905b81548152906001019060200180831161094457829003601f168201915b505050505090806004018054600181600116156101000203166002900480601f0160208091040260200160405190810160405280929190818152602001828054600181600116156101000203166002900480156109ff5780601f106109d4576101008083540402835291602001916109ff565b820191906000526020600020905b8154815290600101906020018083116109e257829003601f168201915b5050505050905085565b60068054600181600116156101000203166002900480601f016020809104026020016040519081016040528092919081815260200182805460018160011615610100020316600290048015610a9f5780601f10610a7457610100808354040283529160200191610a9f565b820191906000526020600020905b815481529060010190602001808311610a8257829003601f168201915b505050505081565b60045481565b60058054600181600116156101000203166002900480601f016020809104026020016040519081016040528092919081815260200182805460018160011615610100020316600290048015610b435780601f10610b1857610100808354040283529160200191610b43565b820191906000526020600020905b815481529060010190602001808311610b2657829003601f168201915b505050505081565b6004600081548092919060010191905055506040518060a00160405280600454815260200184815260200160001515815260200183815260200182815250600260006004548152602001908152602001600020600082015181600001556020820151816001019080519060200190610bc4929190610d3b565b5060408201518160020160006101000a81548160ff0219169083151502179055506060820151816003019080519060200190610c01929190610d3b565b506080820151816004019080519060200190610c1e929190610d3b565b50905050505050565b60016020528060005260406000206000915054906101000a900460ff1681565b6003600081548092919060010191905055506040518060a00160405280600354815260200184815260200160008152602001838152602001828152506000806003548152602001908152602001600020600082015181600001556020820151816001019080519060200190610cbd929190610d3b565b50604082015181600201556060820151816003019080519060200190610ce4929190610d3b565b506080820151816004019080519060200190610d01929190610d3b565b50905050505050565b6040518060a00160405280600081526020016060815260200160001515815260200160608152602001606081525090565b828054600181600116156101000203166002900490600052602060002090601f016020900481019282601f10610d7c57805160ff1916838001178555610daa565b82800160010185558215610daa579182015b82811115610da9578251825591602001919060010190610d8e565b5b509050610db79190610dbb565b5090565b610ddd91905b80821115610dd9576000816000905550600101610dc1565b5090565b90565b600081359050610def816113a6565b92915050565b600082601f830112610e0657600080fd5b8135610e19610e1482611279565b61124c565b91508082526020830160208301858383011115610e3557600080fd5b610e40838284611353565b50505092915050565b600081359050610e58816113bd565b92915050565b600060208284031215610e7057600080fd5b6000610e7e84828501610de0565b91505092915050565b600080600060608486031215610e9c57600080fd5b600084013567ffffffffffffffff811115610eb657600080fd5b610ec286828701610df5565b935050602084013567ffffffffffffffff811115610edf57600080fd5b610eeb86828701610df5565b925050604084013567ffffffffffffffff811115610f0857600080fd5b610f1486828701610df5565b9150509250925092565b600060208284031215610f3057600080fd5b6000610f3e84828501610e49565b91505092915050565b6000610f538383611060565b905092915050565b6000610f66826112b5565b610f7081856112d8565b935083602082028501610f82856112a5565b8060005b85811015610fbe5784840389528151610f9f8582610f47565b9450610faa836112cb565b925060208a01995050600181019050610f86565b50829750879550505050505092915050565b610fd98161131d565b82525050565b610fe88161131d565b82525050565b6000610ff9826112c0565b61100381856112e9565b9350611013818560208601611362565b61101c81611395565b840191505092915050565b6000611032826112c0565b61103c81856112fa565b935061104c818560208601611362565b61105581611395565b840191505092915050565b600060a08301600083015161107860008601826110e4565b50602083015184820360208601526110908282610fee565b91505060408301516110a56040860182610fd0565b50606083015184820360608601526110bd8282610fee565b915050608083015184820360808601526110d78282610fee565b9150508091505092915050565b6110ed81611349565b82525050565b6110fc81611349565b82525050565b6000602082019050818103600083015261111c8184610f5b565b905092915050565b60006020820190506111396000830184610fdf565b92915050565b600060208201905081810360008301526111598184611027565b905092915050565b600060208201905061117660008301846110f3565b92915050565b600060a08201905061119160008301886110f3565b81810360208301526111a38187611027565b90506111b26040830186610fdf565b81810360608301526111c48185611027565b905081810360808301526111d88184611027565b90509695505050505050565b600060a0820190506111f960008301886110f3565b818103602083015261120b8187611027565b905061121a60408301866110f3565b818103606083015261122c8185611027565b905081810360808301526112408184611027565b90509695505050505050565b6000604051905081810181811067ffffffffffffffff8211171561126f57600080fd5b8060405250919050565b600067ffffffffffffffff82111561129057600080fd5b601f19601f8301169050602081019050919050565b6000819050602082019050919050565b600081519050919050565b600081519050919050565b6000602082019050919050565b600082825260208201905092915050565b600082825260208201905092915050565b600082825260208201905092915050565b600061131682611329565b9050919050565b60008115159050919050565b600073ffffffffffffffffffffffffffffffffffffffff82169050919050565b6000819050919050565b82818337600083830152505050565b60005b83811015611380578082015181840152602081019050611365565b8381111561138f576000848401525b50505050565b6000601f19601f8301169050919050565b6113af8161130b565b81146113ba57600080fd5b50565b6113c681611349565b81146113d157600080fd5b5056fea365627a7a723158209aa1a9f3204ad9ab3ce50fc98e27a16541ea82297cb2b3c8a4c8137dea2e41b66c6578706572696d656e74616cf564736f6c63430005100040",
  "source": "pragma solidity ^0.5.16;\npragma experimental ABIEncoderV2;\n\ncontract Election {\n\n    struct Candidate {\n        uint id;\n        string name;\n        uint voteCount;\n        string details;\n        string election_id;\n    }\n\n    struct User {\n        uint id;\n        string name;\n        bool voted;\n        string aadhar;\n        string contituency_id;\n    }\n\n    mapping(uint => Candidate) public candidates;\n    mapping(address => bool) public voters;\n\n    mapping(uint => User) public users;\n\n    uint public candidatesCount;\n    uint public usersCount;\n\n    string public candidate;\n    string public user;\n\n    constructor() public {}\n\n    event votedEvent(\n        uint indexed _candidateId\n    );\n\n    function addCandidate(string memory _name, string memory _details, string memory _election_id) public {\n        candidatesCount++;\n        candidates[candidatesCount] = Candidate(candidatesCount, _name, 0, _details, _election_id);\n    }\n\n    function addUser(string memory _name, string memory _aadhar, string memory _constituency_id) public {\n        usersCount++;\n        users[usersCount] = User(usersCount, _name, false, _aadhar, _constituency_id);\n    }\n\n    function getUsers() public view returns (User[] memory) {\n        User[] memory rusers = new User[](usersCount);\n        for (uint j = 0; j < usersCount; j++) {\n            User storage tuser = users[j];\n            rusers[j] = tuser;\n        }\n        return rusers;\n    }\n\n    function vote(uint _candidateId) public {\n        require(!voters[msg.sender]);\n\n        require(_candidateId > 0 && _candidateId <= candidatesCount);\n\n        voters[msg.sender] = true;\n\n        candidates[_candidateId].voteCount++;\n\n        emit votedEvent(_candidateId);\n    }\n\n}\n",
  "sourcePath": "/home/niteesh/development/blockchain/E-Voting-App/blockchain/src/contracts/Election.sol",
  "compiler": {
    "name": "solc",
    "version": "0.5.16+commit.9c3226ce.Emscripten.clang"
  },
  "schemaVersion": "3.4.7",
  "updatedAt": "2022-04-17T08:32:07.674Z",
  "networkType": "ethereum",
  "devdoc": {
    "methods": {}
  },
  "userdoc": {
    "methods": {}
  }
}