{
  "contractName": "Election",
  "abi": [
    {
      "inputs": [],
      "payable": false,
      "stateMutability": "nonpayable",
      "type": "constructor"
    },
    {
      "anonymous": false,
      "inputs": [
        {
          "indexed": true,
          "internalType": "uint256",
          "name": "_candidateId",
          "type": "uint256"
        }
      ],
      "name": "votedEvent",
      "type": "event"
    },
    {
      "constant": true,
      "inputs": [],
      "name": "candidate",
      "outputs": [
        {
          "internalType": "string",
          "name": "",
          "type": "string"
        }
      ],
      "payable": false,
      "stateMutability": "view",
      "type": "function"
    },
    {
      "constant": true,
      "inputs": [
        {
          "internalType": "uint256",
          "name": "",
          "type": "uint256"
        }
      ],
      "name": "candidates",
      "outputs": [
        {
          "internalType": "uint256",
          "name": "id",
          "type": "uint256"
        },
        {
          "internalType": "string",
          "name": "name",
          "type": "string"
        },
        {
          "internalType": "uint256",
          "name": "voteCount",
          "type": "uint256"
        },
        {
          "internalType": "string",
          "name": "details",
          "type": "string"
        },
        {
          "internalType": "string",
          "name": "election_id",
          "type": "string"
        },
        {
          "internalType": "string",
          "name": "image_url",
          "type": "string"
        }
      ],
      "payable": false,
      "stateMutability": "view",
      "type": "function"
    },
    {
      "constant": true,
      "inputs": [],
      "name": "candidatesCount",
      "outputs": [
        {
          "internalType": "uint256",
          "name": "",
          "type": "uint256"
        }
      ],
      "payable": false,
      "stateMutability": "view",
      "type": "function"
    },
    {
      "constant": true,
      "inputs": [],
      "name": "user",
      "outputs": [
        {
          "internalType": "string",
          "name": "",
          "type": "string"
        }
      ],
      "payable": false,
      "stateMutability": "view",
      "type": "function"
    },
    {
      "constant": true,
      "inputs": [
        {
          "internalType": "uint256",
          "name": "",
          "type": "uint256"
        }
      ],
      "name": "users",
      "outputs": [
        {
          "internalType": "uint256",
          "name": "id",
          "type": "uint256"
        },
        {
          "internalType": "string",
          "name": "name",
          "type": "string"
        },
        {
          "internalType": "bool",
          "name": "voted",
          "type": "bool"
        },
        {
          "internalType": "string",
          "name": "aadhar",
          "type": "string"
        },
        {
          "internalType": "string",
          "name": "contituency_id",
          "type": "string"
        }
      ],
      "payable": false,
      "stateMutability": "view",
      "type": "function"
    },
    {
      "constant": true,
      "inputs": [],
      "name": "usersCount",
      "outputs": [
        {
          "internalType": "uint256",
          "name": "",
          "type": "uint256"
        }
      ],
      "payable": false,
      "stateMutability": "view",
      "type": "function"
    },
    {
      "constant": true,
      "inputs": [
        {
          "internalType": "address",
          "name": "",
          "type": "address"
        }
      ],
      "name": "voters",
      "outputs": [
        {
          "internalType": "bool",
          "name": "",
          "type": "bool"
        }
      ],
      "payable": false,
      "stateMutability": "view",
      "type": "function"
    },
    {
      "constant": false,
      "inputs": [
        {
          "internalType": "string",
          "name": "_name",
          "type": "string"
        },
        {
          "internalType": "string",
          "name": "_details",
          "type": "string"
        },
        {
          "internalType": "string",
          "name": "_image_url",
          "type": "string"
        },
        {
          "internalType": "string",
          "name": "_election_id",
          "type": "string"
        }
      ],
      "name": "addCandidate",
      "outputs": [],
      "payable": false,
      "stateMutability": "nonpayable",
      "type": "function"
    },
    {
      "constant": false,
      "inputs": [
        {
          "internalType": "string",
          "name": "_name",
          "type": "string"
        },
        {
          "internalType": "string",
          "name": "_aadhar",
          "type": "string"
        },
        {
          "internalType": "string",
          "name": "_constituency_id",
          "type": "string"
        }
      ],
      "name": "addUser",
      "outputs": [],
      "payable": false,
      "stateMutability": "nonpayable",
      "type": "function"
    },
    {
      "constant": true,
      "inputs": [],
      "name": "getUsers",
      "outputs": [
        {
          "components": [
            {
              "internalType": "uint256",
              "name": "id",
              "type": "uint256"
            },
            {
              "internalType": "string",
              "name": "name",
              "type": "string"
            },
            {
              "internalType": "bool",
              "name": "voted",
              "type": "bool"
            },
            {
              "internalType": "string",
              "name": "aadhar",
              "type": "string"
            },
            {
              "internalType": "string",
              "name": "contituency_id",
              "type": "string"
            }
          ],
          "internalType": "struct Election.User[]",
          "name": "",
          "type": "tuple[]"
        }
      ],
      "payable": false,
      "stateMutability": "view",
      "type": "function"
    },
    {
      "constant": false,
      "inputs": [
        {
          "internalType": "uint256",
          "name": "_candidateId",
          "type": "uint256"
        }
      ],
      "name": "vote",
      "outputs": [],
      "payable": false,
      "stateMutability": "nonpayable",
      "type": "function"
    }
  ],
  "bytecode": "0x608060405234801561001057600080fd5b506115b2806100206000396000f3fe608060405234801561001057600080fd5b50600436106100a85760003560e01c806342b03cc91161007157806342b03cc91461016e5780634f8632ba1461018a5780636ba13a82146101a85780636c8381f8146101c657806395c5fed4146101e4578063a3ec138d14610200576100a8565b8062ce8e3e146100ad5780630121b93f146100cb5780632d35a8a2146100e75780633477ee2e14610105578063365b98b21461013a575b600080fd5b6100b5610230565b6040516100c29190611288565b60405180910390f35b6100e560048036036100e091908101906110a4565b6104dd565b005b6100ef6105fb565b6040516100fc91906112e7565b60405180910390f35b61011f600480360361011a91908101906110a4565b610601565b6040516101319695949392919061136a565b60405180910390f35b610154600480360361014f91908101906110a4565b61089d565b604051610165959493929190611302565b60405180910390f35b61018860048036036101839190810190610fe1565b610aa8565b005b610192610b8f565b60405161019f91906112c5565b60405180910390f35b6101b0610c2d565b6040516101bd91906112e7565b60405180910390f35b6101ce610c33565b6040516101db91906112c5565b60405180910390f35b6101fe60048036036101f99190810190610f4a565b610cd1565b005b61021a60048036036102159190810190610f21565b610dad565b60405161022791906112aa565b60405180910390f35b60608060045460405190808252806020026020018201604052801561026f57816020015b61025c610dcd565b8152602001906001900390816102545790505b50905060008090505b6004548110156104d5576000600260008381526020019081526020016000209050806040518060a001604052908160008201548152602001600182018054600181600116156101000203166002900480601f0160208091040260200160405190810160405280929190818152602001828054600181600116156101000203166002900480156103485780601f1061031d57610100808354040283529160200191610348565b820191906000526020600020905b81548152906001019060200180831161032b57829003601f168201915b505050505081526020016002820160009054906101000a900460ff16151515158152602001600382018054600181600116156101000203166002900480601f0160208091040260200160405190810160405280929190818152602001828054600181600116156101000203166002900480156104055780601f106103da57610100808354040283529160200191610405565b820191906000526020600020905b8154815290600101906020018083116103e857829003601f168201915b50505050508152602001600482018054600181600116156101000203166002900480601f0160208091040260200160405190810160405280929190818152602001828054600181600116156101000203166002900480156104a75780601f1061047c576101008083540402835291602001916104a7565b820191906000526020600020905b81548152906001019060200180831161048a57829003601f168201915b5050505050815250508383815181106104bc57fe5b6020026020010181905250508080600101915050610278565b508091505090565b600160003373ffffffffffffffffffffffffffffffffffffffff1673ffffffffffffffffffffffffffffffffffffffff16815260200190815260200160002060009054906101000a900460ff161561053457600080fd5b60008111801561054657506003548111155b61054f57600080fd5b60018060003373ffffffffffffffffffffffffffffffffffffffff1673ffffffffffffffffffffffffffffffffffffffff16815260200190815260200160002060006101000a81548160ff02191690831515021790555060008082815260200190815260200160002060020160008154809291906001019190505550807ffff3c900d938d21d0990d786e819f29b8d05c1ef587b462b939609625b684b1660405160405180910390a250565b60035481565b6000602052806000526040600020600091509050806000015490806001018054600181600116156101000203166002900480601f0160208091040260200160405190810160405280929190818152602001828054600181600116156101000203166002900480156106b35780601f10610688576101008083540402835291602001916106b3565b820191906000526020600020905b81548152906001019060200180831161069657829003601f168201915b505050505090806002015490806003018054600181600116156101000203166002900480601f0160208091040260200160405190810160405280929190818152602001828054600181600116156101000203166002900480156107575780601f1061072c57610100808354040283529160200191610757565b820191906000526020600020905b81548152906001019060200180831161073a57829003601f168201915b505050505090806004018054600181600116156101000203166002900480601f0160208091040260200160405190810160405280929190818152602001828054600181600116156101000203166002900480156107f55780601f106107ca576101008083540402835291602001916107f5565b820191906000526020600020905b8154815290600101906020018083116107d857829003601f168201915b505050505090806005018054600181600116156101000203166002900480601f0160208091040260200160405190810160405280929190818152602001828054600181600116156101000203166002900480156108935780601f1061086857610100808354040283529160200191610893565b820191906000526020600020905b81548152906001019060200180831161087657829003601f168201915b5050505050905086565b6002602052806000526040600020600091509050806000015490806001018054600181600116156101000203166002900480601f01602080910402602001604051908101604052809291908181526020018280546001816001161561010002031660029004801561094f5780601f106109245761010080835404028352916020019161094f565b820191906000526020600020905b81548152906001019060200180831161093257829003601f168201915b5050505050908060020160009054906101000a900460ff1690806003018054600181600116156101000203166002900480601f016020809104026020016040519081016040528092919081815260200182805460018160011615610100020316600290048015610a005780601f106109d557610100808354040283529160200191610a00565b820191906000526020600020905b8154815290600101906020018083116109e357829003601f168201915b505050505090806004018054600181600116156101000203166002900480601f016020809104026020016040519081016040528092919081815260200182805460018160011615610100020316600290048015610a9e5780601f10610a7357610100808354040283529160200191610a9e565b820191906000526020600020905b815481529060010190602001808311610a8157829003601f168201915b5050505050905085565b6003600081548092919060010191905055506040518060c00160405280600354815260200185815260200160008152602001848152602001828152602001838152506000806003548152602001908152602001600020600082015181600001556020820151816001019080519060200190610b24929190610dfe565b50604082015181600201556060820151816003019080519060200190610b4b929190610dfe565b506080820151816004019080519060200190610b68929190610dfe565b5060a0820151816005019080519060200190610b85929190610dfe565b5090505050505050565b60068054600181600116156101000203166002900480601f016020809104026020016040519081016040528092919081815260200182805460018160011615610100020316600290048015610c255780601f10610bfa57610100808354040283529160200191610c25565b820191906000526020600020905b815481529060010190602001808311610c0857829003601f168201915b505050505081565b60045481565b60058054600181600116156101000203166002900480601f016020809104026020016040519081016040528092919081815260200182805460018160011615610100020316600290048015610cc95780601f10610c9e57610100808354040283529160200191610cc9565b820191906000526020600020905b815481529060010190602001808311610cac57829003601f168201915b505050505081565b6004600081548092919060010191905055506040518060a00160405280600454815260200184815260200160001515815260200183815260200182815250600260006004548152602001908152602001600020600082015181600001556020820151816001019080519060200190610d4a929190610dfe565b5060408201518160020160006101000a81548160ff0219169083151502179055506060820151816003019080519060200190610d87929190610dfe565b506080820151816004019080519060200190610da4929190610dfe565b50905050505050565b60016020528060005260406000206000915054906101000a900460ff1681565b6040518060a00160405280600081526020016060815260200160001515815260200160608152602001606081525090565b828054600181600116156101000203166002900490600052602060002090601f016020900481019282601f10610e3f57805160ff1916838001178555610e6d565b82800160010185558215610e6d579182015b82811115610e6c578251825591602001919060010190610e51565b5b509050610e7a9190610e7e565b5090565b610ea091905b80821115610e9c576000816000905550600101610e84565b5090565b90565b600081359050610eb281611541565b92915050565b600082601f830112610ec957600080fd5b8135610edc610ed782611414565b6113e7565b91508082526020830160208301858383011115610ef857600080fd5b610f038382846114ee565b50505092915050565b600081359050610f1b81611558565b92915050565b600060208284031215610f3357600080fd5b6000610f4184828501610ea3565b91505092915050565b600080600060608486031215610f5f57600080fd5b600084013567ffffffffffffffff811115610f7957600080fd5b610f8586828701610eb8565b935050602084013567ffffffffffffffff811115610fa257600080fd5b610fae86828701610eb8565b925050604084013567ffffffffffffffff811115610fcb57600080fd5b610fd786828701610eb8565b9150509250925092565b60008060008060808587031215610ff757600080fd5b600085013567ffffffffffffffff81111561101157600080fd5b61101d87828801610eb8565b945050602085013567ffffffffffffffff81111561103a57600080fd5b61104687828801610eb8565b935050604085013567ffffffffffffffff81111561106357600080fd5b61106f87828801610eb8565b925050606085013567ffffffffffffffff81111561108c57600080fd5b61109887828801610eb8565b91505092959194509250565b6000602082840312156110b657600080fd5b60006110c484828501610f0c565b91505092915050565b60006110d983836111e6565b905092915050565b60006110ec82611450565b6110f68185611473565b93508360208202850161110885611440565b8060005b85811015611144578484038952815161112585826110cd565b945061113083611466565b925060208a0199505060018101905061110c565b50829750879550505050505092915050565b61115f816114b8565b82525050565b61116e816114b8565b82525050565b600061117f8261145b565b6111898185611484565b93506111998185602086016114fd565b6111a281611530565b840191505092915050565b60006111b88261145b565b6111c28185611495565b93506111d28185602086016114fd565b6111db81611530565b840191505092915050565b600060a0830160008301516111fe600086018261126a565b50602083015184820360208601526112168282611174565b915050604083015161122b6040860182611156565b50606083015184820360608601526112438282611174565b9150506080830151848203608086015261125d8282611174565b9150508091505092915050565b611273816114e4565b82525050565b611282816114e4565b82525050565b600060208201905081810360008301526112a281846110e1565b905092915050565b60006020820190506112bf6000830184611165565b92915050565b600060208201905081810360008301526112df81846111ad565b905092915050565b60006020820190506112fc6000830184611279565b92915050565b600060a0820190506113176000830188611279565b818103602083015261132981876111ad565b90506113386040830186611165565b818103606083015261134a81856111ad565b9050818103608083015261135e81846111ad565b90509695505050505050565b600060c08201905061137f6000830189611279565b818103602083015261139181886111ad565b90506113a06040830187611279565b81810360608301526113b281866111ad565b905081810360808301526113c681856111ad565b905081810360a08301526113da81846111ad565b9050979650505050505050565b6000604051905081810181811067ffffffffffffffff8211171561140a57600080fd5b8060405250919050565b600067ffffffffffffffff82111561142b57600080fd5b601f19601f8301169050602081019050919050565b6000819050602082019050919050565b600081519050919050565b600081519050919050565b6000602082019050919050565b600082825260208201905092915050565b600082825260208201905092915050565b600082825260208201905092915050565b60006114b1826114c4565b9050919050565b60008115159050919050565b600073ffffffffffffffffffffffffffffffffffffffff82169050919050565b6000819050919050565b82818337600083830152505050565b60005b8381101561151b578082015181840152602081019050611500565b8381111561152a576000848401525b50505050565b6000601f19601f8301169050919050565b61154a816114a6565b811461155557600080fd5b50565b611561816114e4565b811461156c57600080fd5b5056fea365627a7a7231582010147a5b69b8daee090c4949fa2d373bc05be83ff73a2e7ba107237ab10a6a806c6578706572696d656e74616cf564736f6c63430005100040",
  "source": "pragma solidity ^0.5.16;\npragma experimental ABIEncoderV2;\n\ncontract Election {\n\n    struct Candidate {\n        uint id;\n        string name;\n        uint voteCount;\n        string details;\n        string election_id;\n        string image_url;\n    }\n\n    struct User {\n        uint id;\n        string name;\n        bool voted;\n        string aadhar;\n        string contituency_id;\n    }\n\n    mapping(uint => Candidate) public candidates;\n    mapping(address => bool) public voters;\n\n    mapping(uint => User) public users;\n\n    uint public candidatesCount;\n    uint public usersCount;\n\n    string public candidate;\n    string public user;\n\n    constructor() public {}\n\n    event votedEvent(\n        uint indexed _candidateId\n    );\n\n    function addCandidate(string memory _name, string memory _details, string memory _image_url, string memory _election_id) public {\n        candidatesCount++;\n        candidates[candidatesCount] = Candidate(candidatesCount, _name, 0, _details, _election_id, _image_url);\n    }\n\n    function addUser(string memory _name, string memory _aadhar, string memory _constituency_id) public {\n        usersCount++;\n        users[usersCount] = User(usersCount, _name, false, _aadhar, _constituency_id);\n    }\n\n    function getUsers() public view returns (User[] memory) {\n        User[] memory rusers = new User[](usersCount);\n        for (uint j = 0; j < usersCount; j++) {\n            User storage tuser = users[j];\n            rusers[j] = tuser;\n        }\n        return rusers;\n    }\n\n    function vote(uint _candidateId) public {\n        require(!voters[msg.sender]);\n\n        require(_candidateId > 0 && _candidateId <= candidatesCount);\n\n        voters[msg.sender] = true;\n\n        candidates[_candidateId].voteCount++;\n\n        emit votedEvent(_candidateId);\n    }\n\n}\n",
  "sourcePath": "/home/niteesh/development/blockchain/E-Voting-App/blockchain/src/contracts/Election.sol",
  "compiler": {
    "name": "solc",
    "version": "0.5.16+commit.9c3226ce.Emscripten.clang"
  },
  "schemaVersion": "3.4.7",
  "updatedAt": "2022-04-26T17:14:02.928Z",
  "networkType": "ethereum",
  "devdoc": {
    "methods": {}
  },
  "userdoc": {
    "methods": {}
  }
}